{"abi":[{"type":"constructor","inputs":[],"stateMutability":"nonpayable"},{"type":"function","name":"UPGRADE_INTERFACE_VERSION","inputs":[],"outputs":[{"name":"","type":"string","internalType":"string"}],"stateMutability":"view"},{"type":"function","name":"accountSalt","inputs":[],"outputs":[{"name":"","type":"bytes32","internalType":"bytes32"}],"stateMutability":"view"},{"type":"function","name":"authEmail","inputs":[{"name":"emailAuthMsg","type":"tuple","internalType":"struct EmailAuthMsg","components":[{"name":"templateId","type":"uint256","internalType":"uint256"},{"name":"commandParams","type":"bytes[]","internalType":"bytes[]"},{"name":"skippedCommandPrefix","type":"uint256","internalType":"uint256"},{"name":"proof","type":"tuple","internalType":"struct EmailProof","components":[{"name":"domainName","type":"string","internalType":"string"},{"name":"publicKeyHash","type":"bytes32","internalType":"bytes32"},{"name":"timestamp","type":"uint256","internalType":"uint256"},{"name":"maskedCommand","type":"string","internalType":"string"},{"name":"emailNullifier","type":"bytes32","internalType":"bytes32"},{"name":"accountSalt","type":"bytes32","internalType":"bytes32"},{"name":"isCodeExist","type":"bool","internalType":"bool"},{"name":"proof","type":"bytes","internalType":"bytes"}]}]}],"outputs":[],"stateMutability":"nonpayable"},{"type":"function","name":"commandTemplates","inputs":[{"name":"","type":"uint256","internalType":"uint256"},{"name":"","type":"uint256","internalType":"uint256"}],"outputs":[{"name":"","type":"string","internalType":"string"}],"stateMutability":"view"},{"type":"function","name":"controller","inputs":[],"outputs":[{"name":"","type":"address","internalType":"address"}],"stateMutability":"view"},{"type":"function","name":"deleteCommandTemplate","inputs":[{"name":"_templateId","type":"uint256","internalType":"uint256"}],"outputs":[],"stateMutability":"nonpayable"},{"type":"function","name":"dkimRegistryAddr","inputs":[],"outputs":[{"name":"","type":"address","internalType":"address"}],"stateMutability":"view"},{"type":"function","name":"getCommandTemplate","inputs":[{"name":"_templateId","type":"uint256","internalType":"uint256"}],"outputs":[{"name":"","type":"string[]","internalType":"string[]"}],"stateMutability":"view"},{"type":"function","name":"initDKIMRegistry","inputs":[{"name":"_dkimRegistryAddr","type":"address","internalType":"address"}],"outputs":[],"stateMutability":"nonpayable"},{"type":"function","name":"initVerifier","inputs":[{"name":"_verifierAddr","type":"address","internalType":"address"}],"outputs":[],"stateMutability":"nonpayable"},{"type":"function","name":"initialize","inputs":[{"name":"_initialOwner","type":"address","internalType":"address"},{"name":"_accountSalt","type":"bytes32","internalType":"bytes32"},{"name":"_controller","type":"address","internalType":"address"}],"outputs":[],"stateMutability":"nonpayable"},{"type":"function","name":"insertCommandTemplate","inputs":[{"name":"_templateId","type":"uint256","internalType":"uint256"},{"name":"_commandTemplate","type":"string[]","internalType":"string[]"}],"outputs":[],"stateMutability":"nonpayable"},{"type":"function","name":"lastTimestamp","inputs":[],"outputs":[{"name":"","type":"uint256","internalType":"uint256"}],"stateMutability":"view"},{"type":"function","name":"owner","inputs":[],"outputs":[{"name":"","type":"address","internalType":"address"}],"stateMutability":"view"},{"type":"function","name":"proxiableUUID","inputs":[],"outputs":[{"name":"","type":"bytes32","internalType":"bytes32"}],"stateMutability":"view"},{"type":"function","name":"renounceOwnership","inputs":[],"outputs":[],"stateMutability":"nonpayable"},{"type":"function","name":"setTimestampCheckEnabled","inputs":[{"name":"_enabled","type":"bool","internalType":"bool"}],"outputs":[],"stateMutability":"nonpayable"},{"type":"function","name":"timestampCheckEnabled","inputs":[],"outputs":[{"name":"","type":"bool","internalType":"bool"}],"stateMutability":"view"},{"type":"function","name":"transferOwnership","inputs":[{"name":"newOwner","type":"address","internalType":"address"}],"outputs":[],"stateMutability":"nonpayable"},{"type":"function","name":"updateCommandTemplate","inputs":[{"name":"_templateId","type":"uint256","internalType":"uint256"},{"name":"_commandTemplate","type":"string[]","internalType":"string[]"}],"outputs":[],"stateMutability":"nonpayable"},{"type":"function","name":"updateDKIMRegistry","inputs":[{"name":"_dkimRegistryAddr","type":"address","internalType":"address"}],"outputs":[],"stateMutability":"nonpayable"},{"type":"function","name":"updateVerifier","inputs":[{"name":"_verifierAddr","type":"address","internalType":"address"}],"outputs":[],"stateMutability":"nonpayable"},{"type":"function","name":"upgradeToAndCall","inputs":[{"name":"newImplementation","type":"address","internalType":"address"},{"name":"data","type":"bytes","internalType":"bytes"}],"outputs":[],"stateMutability":"payable"},{"type":"function","name":"usedNullifiers","inputs":[{"name":"","type":"bytes32","internalType":"bytes32"}],"outputs":[{"name":"","type":"bool","internalType":"bool"}],"stateMutability":"view"},{"type":"function","name":"verifierAddr","inputs":[],"outputs":[{"name":"","type":"address","internalType":"address"}],"stateMutability":"view"},{"type":"event","name":"CommandTemplateDeleted","inputs":[{"name":"templateId","type":"uint256","indexed":true,"internalType":"uint256"}],"anonymous":false},{"type":"event","name":"CommandTemplateInserted","inputs":[{"name":"templateId","type":"uint256","indexed":true,"internalType":"uint256"}],"anonymous":false},{"type":"event","name":"CommandTemplateUpdated","inputs":[{"name":"templateId","type":"uint256","indexed":true,"internalType":"uint256"}],"anonymous":false},{"type":"event","name":"DKIMRegistryUpdated","inputs":[{"name":"dkimRegistry","type":"address","indexed":true,"internalType":"address"}],"anonymous":false},{"type":"event","name":"EmailAuthed","inputs":[{"name":"emailNullifier","type":"bytes32","indexed":true,"internalType":"bytes32"},{"name":"accountSalt","type":"bytes32","indexed":true,"internalType":"bytes32"},{"name":"isCodeExist","type":"bool","indexed":false,"internalType":"bool"},{"name":"templateId","type":"uint256","indexed":false,"internalType":"uint256"}],"anonymous":false},{"type":"event","name":"Initialized","inputs":[{"name":"version","type":"uint64","indexed":false,"internalType":"uint64"}],"anonymous":false},{"type":"event","name":"OwnershipTransferred","inputs":[{"name":"previousOwner","type":"address","indexed":true,"internalType":"address"},{"name":"newOwner","type":"address","indexed":true,"internalType":"address"}],"anonymous":false},{"type":"event","name":"TimestampCheckEnabled","inputs":[{"name":"enabled","type":"bool","indexed":false,"internalType":"bool"}],"anonymous":false},{"type":"event","name":"Upgraded","inputs":[{"name":"implementation","type":"address","indexed":true,"internalType":"address"}],"anonymous":false},{"type":"event","name":"VerifierUpdated","inputs":[{"name":"verifier","type":"address","indexed":true,"internalType":"address"}],"anonymous":false},{"type":"error","name":"AddressEmptyCode","inputs":[{"name":"target","type":"address","internalType":"address"}]},{"type":"error","name":"ERC1967InvalidImplementation","inputs":[{"name":"implementation","type":"address","internalType":"address"}]},{"type":"error","name":"ERC1967NonPayable","inputs":[]},{"type":"error","name":"FailedInnerCall","inputs":[]},{"type":"error","name":"InvalidInitialization","inputs":[]},{"type":"error","name":"NotInitializing","inputs":[]},{"type":"error","name":"OwnableInvalidOwner","inputs":[{"name":"owner","type":"address","internalType":"address"}]},{"type":"error","name":"OwnableUnauthorizedAccount","inputs":[{"name":"account","type":"address","internalType":"address"}]},{"type":"error","name":"UUPSUnauthorizedCallContext","inputs":[]},{"type":"error","name":"UUPSUnsupportedProxiableUUID","inputs":[{"name":"slot","type":"bytes32","internalType":"bytes32"}]}],"bytecode":{"object":"0x60a060405230608052348015601357600080fd5b506080516130c961003d60003960008181611bd101528181611bfa0152611e1b01526130c96000f3fe6080604052600436106101965760003560e01c80636c74921e116100e1578063a500125c1161008a578063d26b3e6e11610064578063d26b3e6e146104db578063e453c0f3146104fb578063f2fde38b1461051b578063f77c47911461053b57600080fd5b8063a500125c14610452578063ad3cb1cc14610472578063ad3f5f9b146104bb57600080fd5b80638ff3730f116100bb5780638ff3730f146103e557806395e33c081461040557806397fc007c1461043257600080fd5b80636c74921e14610370578063715018a6146103865780638da5cb5b1461039b57600080fd5b80634141407c11610143578063557cf5ef1161011d578063557cf5ef14610305578063640e8b6914610325578063663ea2e21461034557600080fd5b80634141407c146102bd5780634f1ef286146102dd57806352d1902d146102f057600080fd5b8063206137aa11610174578063206137aa1461024157806324e33f11146102815780633e56f529146102a357600080fd5b8063091c16501461019b57806319d8ac61146101d15780631bc01b83146101f5575b600080fd5b3480156101a757600080fd5b506101bb6101b636600461251d565b610568565b6040516101c891906125ad565b60405180910390f35b3480156101dd57600080fd5b506101e760055481565b6040519081526020016101c8565b34801561020157600080fd5b5060015473ffffffffffffffffffffffffffffffffffffffff165b60405173ffffffffffffffffffffffffffffffffffffffff90911681526020016101c8565b34801561024d57600080fd5b5061027161025c3660046125c0565b60066020526000908152604090205460ff1681565b60405190151581526020016101c8565b34801561028d57600080fd5b506102a161029c366004612767565b610621565b005b3480156102af57600080fd5b506007546102719060ff1681565b3480156102c957600080fd5b506102a16102d8366004612853565b610788565b6102a16102eb36600461286e565b610927565b3480156102fc57600080fd5b506101e7610946565b34801561031157600080fd5b506102a1610320366004612853565b610975565b34801561033157600080fd5b506102a16103403660046125c0565b610b3a565b34801561035157600080fd5b5060025473ffffffffffffffffffffffffffffffffffffffff1661021c565b34801561037c57600080fd5b506101e760005481565b34801561039257600080fd5b506102a1610c41565b3480156103a757600080fd5b507f9016d09d72d40fdae2fd8ceac6b6234c7706214fd39c1cd1e609a0528c1993005473ffffffffffffffffffffffffffffffffffffffff1661021c565b3480156103f157600080fd5b506102a1610400366004612767565b610c55565b34801561041157600080fd5b506104256104203660046125c0565b610db8565b6040516101c891906128bc565b34801561043e57600080fd5b506102a161044d366004612853565b610ef6565b34801561045e57600080fd5b506102a161046d366004612853565b610f61565b34801561047e57600080fd5b506101bb6040518060400160405280600581526020017f352e302e3000000000000000000000000000000000000000000000000000000081525081565b3480156104c757600080fd5b506102a16104d6366004612a32565b610fcc565b3480156104e757600080fd5b506102a16104f6366004612b5d565b611895565b34801561050757600080fd5b506102a1610516366004612b99565b611a89565b34801561052757600080fd5b506102a1610536366004612853565b611b55565b34801561054757600080fd5b5060035461021c9073ffffffffffffffffffffffffffffffffffffffff1681565b6004602052816000526040600020818154811061058457600080fd5b906000526020600020016000915091505080546105a090612bb6565b80601f01602080910402602001604051908101604052809291908181526020018280546105cc90612bb6565b80156106195780601f106105ee57610100808354040283529160200191610619565b820191906000526020600020905b8154815290600101906020018083116105fc57829003601f168201915b505050505081565b60035473ffffffffffffffffffffffffffffffffffffffff16331461068d5760405162461bcd60e51b815260206004820152600f60248201527f6f6e6c7920636f6e74726f6c6c6572000000000000000000000000000000000060448201526064015b60405180910390fd5b60008151116106de5760405162461bcd60e51b815260206004820152601960248201527f636f6d6d616e642074656d706c61746520697320656d707479000000000000006044820152606401610684565b6000828152600460205260409020546107395760405162461bcd60e51b815260206004820152601660248201527f74656d706c617465206964206e6f7420657869737473000000000000000000006044820152606401610684565b6000828152600460209081526040909120825161075892840190612446565b5060405182907fdc95812ca71c6147b64adc8089e8212c14080c611798d5b4a7b87a1c873a206d90600090a25050565b60035473ffffffffffffffffffffffffffffffffffffffff1633146107ef5760405162461bcd60e51b815260206004820152600f60248201527f6f6e6c7920636f6e74726f6c6c657200000000000000000000000000000000006044820152606401610684565b73ffffffffffffffffffffffffffffffffffffffff81166108525760405162461bcd60e51b815260206004820152601860248201527f696e76616c6964207665726966696572206164647265737300000000000000006044820152606401610684565b60025473ffffffffffffffffffffffffffffffffffffffff16156108b85760405162461bcd60e51b815260206004820152601c60248201527f766572696669657220616c726561647920696e697469616c697a6564000000006044820152606401610684565b600280547fffffffffffffffffffffffff00000000000000000000000000000000000000001673ffffffffffffffffffffffffffffffffffffffff83169081179091556040517fd24015cc99cc1700cafca3042840a1d8ac1e3964fd2e0e37ea29c654056ee32790600090a250565b61092f611bb9565b61093882611cbd565b6109428282611cc5565b5050565b6000610950611e03565b507f360894a13ba1a3210667c828492db98dca3e2076cc3735a920a3ca505d382bbc90565b60035473ffffffffffffffffffffffffffffffffffffffff1633146109dc5760405162461bcd60e51b815260206004820152600f60248201527f6f6e6c7920636f6e74726f6c6c657200000000000000000000000000000000006044820152606401610684565b73ffffffffffffffffffffffffffffffffffffffff8116610a3f5760405162461bcd60e51b815260206004820152601d60248201527f696e76616c696420646b696d20726567697374727920616464726573730000006044820152606401610684565b60015473ffffffffffffffffffffffffffffffffffffffff1615610acb5760405162461bcd60e51b815260206004820152602160248201527f646b696d20726567697374727920616c726561647920696e697469616c697a6560448201527f64000000000000000000000000000000000000000000000000000000000000006064820152608401610684565b600180547fffffffffffffffffffffffff00000000000000000000000000000000000000001673ffffffffffffffffffffffffffffffffffffffff83169081179091556040517f7dcb4f21aa9071293fb8d282306d5269b110fb7db13ebd4007d1cc52df66987190600090a250565b60035473ffffffffffffffffffffffffffffffffffffffff163314610ba15760405162461bcd60e51b815260206004820152600f60248201527f6f6e6c7920636f6e74726f6c6c657200000000000000000000000000000000006044820152606401610684565b600081815260046020526040902054610bfc5760405162461bcd60e51b815260206004820152601660248201527f74656d706c617465206964206e6f7420657869737473000000000000000000006044820152606401610684565b6000818152600460205260408120610c139161249c565b60405181907fd1df6b3b9269ea7ad12a1e9b67edf66ea65e4a308727c00f94ff7d1700e9640090600090a250565b610c49611e72565b610c536000611f00565b565b60035473ffffffffffffffffffffffffffffffffffffffff163314610cbc5760405162461bcd60e51b815260206004820152600f60248201527f6f6e6c7920636f6e74726f6c6c657200000000000000000000000000000000006044820152606401610684565b6000815111610d0d5760405162461bcd60e51b815260206004820152601960248201527f636f6d6d616e642074656d706c61746520697320656d707479000000000000006044820152606401610684565b60008281526004602052604090205415610d695760405162461bcd60e51b815260206004820152601a60248201527f74656d706c61746520696420616c7265616479206578697374730000000000006044820152606401610684565b60008281526004602090815260409091208251610d8892840190612446565b5060405182907fc1b747b5a151be511e4c17beca7d944cf64950b8deae15f8f3d4f879ed4bea6590600090a25050565b600081815260046020526040902054606090610e165760405162461bcd60e51b815260206004820152601660248201527f74656d706c617465206964206e6f7420657869737473000000000000000000006044820152606401610684565b600082815260046020908152604080832080548251818502810185019093528083529193909284015b82821015610eeb578382906000526020600020018054610e5e90612bb6565b80601f0160208091040260200160405190810160405280929190818152602001828054610e8a90612bb6565b8015610ed75780601f10610eac57610100808354040283529160200191610ed7565b820191906000526020600020905b815481529060010190602001808311610eba57829003601f168201915b505050505081526020019060010190610e3f565b505050509050919050565b610efe611e72565b73ffffffffffffffffffffffffffffffffffffffff81166108b85760405162461bcd60e51b815260206004820152601860248201527f696e76616c6964207665726966696572206164647265737300000000000000006044820152606401610684565b610f69611e72565b73ffffffffffffffffffffffffffffffffffffffff8116610acb5760405162461bcd60e51b815260206004820152601d60248201527f696e76616c696420646b696d20726567697374727920616464726573730000006044820152606401610684565b60035473ffffffffffffffffffffffffffffffffffffffff1633146110335760405162461bcd60e51b815260206004820152600f60248201527f6f6e6c7920636f6e74726f6c6c657200000000000000000000000000000000006044820152606401610684565b8051600090815260046020908152604080832080548251818502810185019093528083529192909190849084015b8282101561110d57838290600052602060002001805461108090612bb6565b80601f01602080910402602001604051908101604052809291908181526020018280546110ac90612bb6565b80156110f95780601f106110ce576101008083540402835291602001916110f9565b820191906000526020600020905b8154815290600101906020018083116110dc57829003601f168201915b505050505081526020019060010190611061565b50505050905060008151116111645760405162461bcd60e51b815260206004820152601660248201527f74656d706c617465206964206e6f7420657869737473000000000000000000006044820152606401610684565b600154606083015180516020909101516040517fe7a7977a00000000000000000000000000000000000000000000000000000000815273ffffffffffffffffffffffffffffffffffffffff9093169263e7a7977a926111c7929091600401612c09565b602060405180830381865afa1580156111e4573d6000803e3d6000fd5b505050506040513d601f19601f820116820180604052508101906112089190612c2b565b15156001146112595760405162461bcd60e51b815260206004820152601c60248201527f696e76616c696420646b696d207075626c6963206b65792068617368000000006044820152606401610684565b60608201516080015160009081526006602052604090205460ff16156112c15760405162461bcd60e51b815260206004820152601c60248201527f656d61696c206e756c6c696669657220616c72656164792075736564000000006044820152606401610684565b816060015160a001516000541461131a5760405162461bcd60e51b815260206004820152601460248201527f696e76616c6964206163636f756e742073616c740000000000000000000000006044820152606401610684565b60075460ff1615806113325750606082015160400151155b806113465750600554826060015160400151115b6113925760405162461bcd60e51b815260206004820152601160248201527f696e76616c69642074696d657374616d700000000000000000000000000000006044820152606401610684565b600260009054906101000a900473ffffffffffffffffffffffffffffffffffffffff1673ffffffffffffffffffffffffffffffffffffffff16639241b06e6040518163ffffffff1660e01b8152600401602060405180830381865afa1580156113ff573d6000803e3d6000fd5b505050506040513d601f19601f820116820180604052508101906114239190612c48565b82606001516060015151111561147b5760405162461bcd60e51b815260206004820152601d60248201527f696e76616c6964206d61736b656420636f6d6d616e64206c656e6774680000006044820152606401610684565b600260009054906101000a900473ffffffffffffffffffffffffffffffffffffffff1673ffffffffffffffffffffffffffffffffffffffff16639241b06e6040518163ffffffff1660e01b8152600401602060405180830381865afa1580156114e8573d6000803e3d6000fd5b505050506040513d601f19601f8201168201806040525081019061150c9190612c48565b8260400151106115845760405162461bcd60e51b815260206004820152602a60248201527f696e76616c69642073697a65206f662074686520736b697070656420636f6d6d60448201527f616e6420707265666978000000000000000000000000000000000000000000006064820152608401610684565b600061159c8360600151606001518460400151611f96565b60408051602081019091526000808252919250905b60038110156116dd5760208501516040517f4d69ffee00000000000000000000000000000000000000000000000000000000815273__$f4d9430cf243fdb92b3e972bc682ac2906$__91634d69ffee91611612919088908690600401612c61565b600060405180830381865af415801561162f573d6000803e3d6000fd5b505050506040513d6000823e601f3d9081017fffffffffffffffffffffffffffffffffffffffffffffffffffffffffffffffe01682016040526116759190810190612d67565b915061168182846120e1565b6116dd57806002036116d55760405162461bcd60e51b815260206004820152600f60248201527f696e76616c696420636f6d6d616e6400000000000000000000000000000000006044820152606401610684565b6001016115b1565b5060025460608501516040517f9ecd831000000000000000000000000000000000000000000000000000000000815273ffffffffffffffffffffffffffffffffffffffff90921691639ecd83109161173791600401612dd5565b602060405180830381865afa158015611754573d6000803e3d6000fd5b505050506040513d601f19601f820116820180604052508101906117789190612c2b565b15156001146117c95760405162461bcd60e51b815260206004820152601360248201527f696e76616c696420656d61696c2070726f6f66000000000000000000000000006044820152606401610684565b606084015160800151600090815260066020526040902080547fffffffffffffffffffffffffffffffffffffffffffffffffffffffffffffff0016600117905560075460ff168015611822575060608401516040015115155b15611834576060840151604001516005555b606084015160a0810151608082015160c09092015186516040519293927f9f27709bbc2a611bc1af72b1bacf08b9776aa76e2d491ba740ad5625b2f6260492611887929015158252602082015260400190565b60405180910390a350505050565b7ff0c57e16840df040f15088dc2f81fe391c3923bec73e23a9662efc9c229c6a00805468010000000000000000810460ff16159067ffffffffffffffff166000811580156118e05750825b905060008267ffffffffffffffff1660011480156118fd5750303b155b90508115801561190b575080155b15611942576040517ff92ee8a900000000000000000000000000000000000000000000000000000000815260040160405180910390fd5b84547fffffffffffffffffffffffffffffffffffffffffffffffff000000000000000016600117855583156119a35784547fffffffffffffffffffffffffffffffffffffffffffffff00ffffffffffffffff16680100000000000000001785555b6119ac88612108565b6000879055600780547fffffffffffffffffffffffffffffffffffffffffffffffffffffffffffffff001660011790556003805473ffffffffffffffffffffffffffffffffffffffff88167fffffffffffffffffffffffff00000000000000000000000000000000000000009091161790558315611a7f5784547fffffffffffffffffffffffffffffffffffffffffffffff00ffffffffffffffff168555604051600181527fc7f505b2f371ae2175ee4913f4499e1f2633a7b5936321eed1cdaeb6115181d29060200160405180910390a15b5050505050505050565b60035473ffffffffffffffffffffffffffffffffffffffff163314611af05760405162461bcd60e51b815260206004820152600f60248201527f6f6e6c7920636f6e74726f6c6c657200000000000000000000000000000000006044820152606401610684565b600780547fffffffffffffffffffffffffffffffffffffffffffffffffffffffffffffff00168215159081179091556040519081527f65ee182e1dca6facd6369fe77c73620dceaa4d694dd6f200cfa7b92228c48edd9060200160405180910390a150565b611b5d611e72565b73ffffffffffffffffffffffffffffffffffffffff8116611bad576040517f1e4fbdf700000000000000000000000000000000000000000000000000000000815260006004820152602401610684565b611bb681611f00565b50565b3073ffffffffffffffffffffffffffffffffffffffff7f0000000000000000000000000000000000000000000000000000000000000000161480611c8657507f000000000000000000000000000000000000000000000000000000000000000073ffffffffffffffffffffffffffffffffffffffff16611c6d7f360894a13ba1a3210667c828492db98dca3e2076cc3735a920a3ca505d382bbc5473ffffffffffffffffffffffffffffffffffffffff1690565b73ffffffffffffffffffffffffffffffffffffffff1614155b15610c53576040517fe07c8dba00000000000000000000000000000000000000000000000000000000815260040160405180910390fd5b611bb6611e72565b8173ffffffffffffffffffffffffffffffffffffffff166352d1902d6040518163ffffffff1660e01b8152600401602060405180830381865afa925050508015611d4a575060408051601f3d9081017fffffffffffffffffffffffffffffffffffffffffffffffffffffffffffffffe0168201909252611d4791810190612c48565b60015b611d98576040517f4c9c8ce300000000000000000000000000000000000000000000000000000000815273ffffffffffffffffffffffffffffffffffffffff83166004820152602401610684565b7f360894a13ba1a3210667c828492db98dca3e2076cc3735a920a3ca505d382bbc8114611df4576040517faa1d49a400000000000000000000000000000000000000000000000000000000815260048101829052602401610684565b611dfe8383612119565b505050565b3073ffffffffffffffffffffffffffffffffffffffff7f00000000000000000000000000000000000000000000000000000000000000001614610c53576040517fe07c8dba00000000000000000000000000000000000000000000000000000000815260040160405180910390fd5b33611eb17f9016d09d72d40fdae2fd8ceac6b6234c7706214fd39c1cd1e609a0528c1993005473ffffffffffffffffffffffffffffffffffffffff1690565b73ffffffffffffffffffffffffffffffffffffffff1614610c53576040517f118cdaa7000000000000000000000000000000000000000000000000000000008152336004820152602401610684565b7f9016d09d72d40fdae2fd8ceac6b6234c7706214fd39c1cd1e609a0528c19930080547fffffffffffffffffffffffff0000000000000000000000000000000000000000811673ffffffffffffffffffffffffffffffffffffffff848116918217845560405192169182907f8be0079c531659141344cd1fd0a4f28419497f9722a3daafe3b4186f6b6457e090600090a3505050565b60608251821115611fe95760405162461bcd60e51b815260206004820152601c60248201527f496e76616c6964206e756d626572206f662063686172616374657273000000006044820152606401610684565b82518390600090611ffb908590612ea7565b67ffffffffffffffff811115612013576120136125d9565b6040519080825280601f01601f19166020018201604052801561203d576020820181803683370190505b509050835b82518110156120d65782818151811061205d5761205d612ee1565b01602001517fff00000000000000000000000000000000000000000000000000000000000000168261208f8784612ea7565b8151811061209f5761209f612ee1565b60200101907effffffffffffffffffffffffffffffffffffffffffffffffffffffffffffff1916908160001a905350600101612042565b509150505b92915050565b600081518351148015612101575081805190602001208380519060200120145b9392505050565b61211061217c565b611bb6816121e3565b612122826121eb565b60405173ffffffffffffffffffffffffffffffffffffffff8316907fbc7cd75a20ee27fd9adebab32041f755214dbc6bffa90cc0225b39da2e5c2d3b90600090a280511561217457611dfe82826122ba565b61094261233d565b7ff0c57e16840df040f15088dc2f81fe391c3923bec73e23a9662efc9c229c6a005468010000000000000000900460ff16610c53576040517fd7e6bcf800000000000000000000000000000000000000000000000000000000815260040160405180910390fd5b611b5d61217c565b8073ffffffffffffffffffffffffffffffffffffffff163b600003612254576040517f4c9c8ce300000000000000000000000000000000000000000000000000000000815273ffffffffffffffffffffffffffffffffffffffff82166004820152602401610684565b7f360894a13ba1a3210667c828492db98dca3e2076cc3735a920a3ca505d382bbc80547fffffffffffffffffffffffff00000000000000000000000000000000000000001673ffffffffffffffffffffffffffffffffffffffff92909216919091179055565b60606000808473ffffffffffffffffffffffffffffffffffffffff16846040516122e49190612f10565b600060405180830381855af49150503d806000811461231f576040519150601f19603f3d011682016040523d82523d6000602084013e612324565b606091505b5091509150612334858383612375565b95945050505050565b3415610c53576040517fb398979f00000000000000000000000000000000000000000000000000000000815260040160405180910390fd5b60608261238a5761238582612404565b612101565b81511580156123ae575073ffffffffffffffffffffffffffffffffffffffff84163b155b156123fd576040517f9996b31500000000000000000000000000000000000000000000000000000000815273ffffffffffffffffffffffffffffffffffffffff85166004820152602401610684565b5092915050565b8051156124145780518082602001fd5b6040517f1425ea4200000000000000000000000000000000000000000000000000000000815260040160405180910390fd5b82805482825590600052602060002090810192821561248c579160200282015b8281111561248c578251829061247c9082612f7a565b5091602001919060010190612466565b506124989291506124b6565b5090565b5080546000825590600052602060002090810190611bb691905b808211156124985760006124ca82826124d3565b506001016124b6565b5080546124df90612bb6565b6000825580601f106124ef575050565b601f016020900490600052602060002090810190611bb691905b808211156124985760008155600101612509565b6000806040838503121561253057600080fd5b50508035926020909101359150565b60005b8381101561255a578181015183820152602001612542565b50506000910152565b6000815180845261257b81602086016020860161253f565b601f017fffffffffffffffffffffffffffffffffffffffffffffffffffffffffffffffe0169290920160200192915050565b6020815260006121016020830184612563565b6000602082840312156125d257600080fd5b5035919050565b7f4e487b7100000000000000000000000000000000000000000000000000000000600052604160045260246000fd5b604051610100810167ffffffffffffffff8111828210171561262c5761262c6125d9565b60405290565b6040516080810167ffffffffffffffff8111828210171561262c5761262c6125d9565b604051601f82017fffffffffffffffffffffffffffffffffffffffffffffffffffffffffffffffe016810167ffffffffffffffff8111828210171561269c5761269c6125d9565b604052919050565b600067ffffffffffffffff8211156126be576126be6125d9565b5060051b60200190565b600067ffffffffffffffff8211156126e2576126e26125d9565b50601f017fffffffffffffffffffffffffffffffffffffffffffffffffffffffffffffffe01660200190565b600082601f83011261271f57600080fd5b8135602083016000612738612733846126c8565b612655565b905082815285838301111561274c57600080fd5b82826020830137600092810160200192909252509392505050565b6000806040838503121561277a57600080fd5b82359150602083013567ffffffffffffffff81111561279857600080fd5b8301601f810185136127a957600080fd5b80356127b7612733826126a4565b8082825260208201915060208360051b8501019250878311156127d957600080fd5b602084015b8381101561281b57803567ffffffffffffffff8111156127fd57600080fd5b61280c8a60208389010161270e565b845250602092830192016127de565b50809450505050509250929050565b803573ffffffffffffffffffffffffffffffffffffffff8116811461284e57600080fd5b919050565b60006020828403121561286557600080fd5b6121018261282a565b6000806040838503121561288157600080fd5b61288a8361282a565b9150602083013567ffffffffffffffff8111156128a657600080fd5b6128b28582860161270e565b9150509250929050565b6000602082016020835280845180835260408501915060408160051b86010192506020860160005b82811015612933577fffffffffffffffffffffffffffffffffffffffffffffffffffffffffffffffc087860301845261291e858351612563565b945060209384019391909101906001016128e4565b50929695505050505050565b8015158114611bb657600080fd5b803561284e8161293f565b6000610100828403121561296b57600080fd5b612973612608565b9050813567ffffffffffffffff81111561298c57600080fd5b6129988482850161270e565b8252506020828101359082015260408083013590820152606082013567ffffffffffffffff8111156129c957600080fd5b6129d58482850161270e565b6060830152506080828101359082015260a080830135908201526129fb60c0830161294d565b60c082015260e082013567ffffffffffffffff811115612a1a57600080fd5b612a268482850161270e565b60e08301525092915050565b600060208284031215612a4457600080fd5b813567ffffffffffffffff811115612a5b57600080fd5b820160808185031215612a6d57600080fd5b612a75612632565b81358152602082013567ffffffffffffffff811115612a9357600080fd5b8201601f81018613612aa457600080fd5b8035612ab2612733826126a4565b8082825260208201915060208360051b850101925088831115612ad457600080fd5b602084015b83811015612b1657803567ffffffffffffffff811115612af857600080fd5b612b078b60208389010161270e565b84525060209283019201612ad9565b50602085015250505060408281013590820152606082013567ffffffffffffffff811115612b4357600080fd5b612b4f86828501612958565b606083015250949350505050565b600080600060608486031215612b7257600080fd5b612b7b8461282a565b925060208401359150612b906040850161282a565b90509250925092565b600060208284031215612bab57600080fd5b81356121018161293f565b600181811c90821680612bca57607f821691505b602082108103612c03577f4e487b7100000000000000000000000000000000000000000000000000000000600052602260045260246000fd5b50919050565b604081526000612c1c6040830185612563565b90508260208301529392505050565b600060208284031215612c3d57600080fd5b81516121018161293f565b600060208284031215612c5a57600080fd5b5051919050565b6000606082016060835280865180835260808501915060808160051b86010192506020880160005b82811015612cd8577fffffffffffffffffffffffffffffffffffffffffffffffffffffffffffffff80878603018452612cc3858351612563565b94506020938401939190910190600101612c89565b50505050828103602084015280855180835260208301915060208160051b8401016020880160005b83811015612d50577fffffffffffffffffffffffffffffffffffffffffffffffffffffffffffffffe0868403018552612d3a838351612563565b6020958601959093509190910190600101612d00565b505080945050505050826040830152949350505050565b600060208284031215612d7957600080fd5b815167ffffffffffffffff811115612d9057600080fd5b8201601f81018413612da157600080fd5b8051612daf612733826126c8565b818152856020838501011115612dc457600080fd5b61233482602083016020860161253f565b60208152600082516101006020840152612df3610120840182612563565b9050602084015160408401526040840151606084015260608401517fffffffffffffffffffffffffffffffffffffffffffffffffffffffffffffffe0848303016080850152612e428282612563565b915050608084015160a084015260a084015160c084015260c0840151612e6c60e085018215159052565b5060e08401517fffffffffffffffffffffffffffffffffffffffffffffffffffffffffffffffe0848303016101008501526123348282612563565b818103818111156120db577f4e487b7100000000000000000000000000000000000000000000000000000000600052601160045260246000fd5b7f4e487b7100000000000000000000000000000000000000000000000000000000600052603260045260246000fd5b60008251612f2281846020870161253f565b9190910192915050565b601f821115611dfe57806000526020600020601f840160051c81016020851015612f535750805b601f840160051c820191505b81811015612f735760008155600101612f5f565b5050505050565b815167ffffffffffffffff811115612f9457612f946125d9565b612fa881612fa28454612bb6565b84612f2c565b6020601f821160018114612ffa5760008315612fc45750848201515b7fffffffffffffffffffffffffffffffffffffffffffffffffffffffffffffffff600385901b1c1916600184901b178455612f73565b6000848152602081207fffffffffffffffffffffffffffffffffffffffffffffffffffffffffffffffe08516915b828110156130485787850151825560209485019460019092019101613028565b508482101561308457868401517fffffffffffffffffffffffffffffffffffffffffffffffffffffffffffffffff600387901b60f8161c191681555b50505050600190811b0190555056fea2646970667358221220003154c84a4c001e7f68a2b8427040f7c97cbcba7daf690fd0cb7a8bea50b3e864736f6c634300081a0033","linkReferences":{"node_modules/@zk-email/ether-email-auth-contracts/src/libraries/CommandUtils.sol":{"CommandUtils":[{"start":5668,"length":20}]}}},"methodIdentifiers":{"UPGRADE_INTERFACE_VERSION()":"ad3cb1cc","accountSalt()":"6c74921e","authEmail((uint256,bytes[],uint256,(string,bytes32,uint256,string,bytes32,bytes32,bool,bytes)))":"ad3f5f9b","commandTemplates(uint256,uint256)":"091c1650","controller()":"f77c4791","deleteCommandTemplate(uint256)":"640e8b69","dkimRegistryAddr()":"1bc01b83","getCommandTemplate(uint256)":"95e33c08","initDKIMRegistry(address)":"557cf5ef","initVerifier(address)":"4141407c","initialize(address,bytes32,address)":"d26b3e6e","insertCommandTemplate(uint256,string[])":"8ff3730f","lastTimestamp()":"19d8ac61","owner()":"8da5cb5b","proxiableUUID()":"52d1902d","renounceOwnership()":"715018a6","setTimestampCheckEnabled(bool)":"e453c0f3","timestampCheckEnabled()":"3e56f529","transferOwnership(address)":"f2fde38b","updateCommandTemplate(uint256,string[])":"24e33f11","updateDKIMRegistry(address)":"a500125c","updateVerifier(address)":"97fc007c","upgradeToAndCall(address,bytes)":"4f1ef286","usedNullifiers(bytes32)":"206137aa","verifierAddr()":"663ea2e2"},"storageLayout":{"storage":[{"astId":4094,"contract":"node_modules/@zk-email/ether-email-auth-contracts/src/EmailAuth.sol:EmailAuth","label":"accountSalt","offset":0,"slot":"0","type":"t_bytes32"},{"astId":4098,"contract":"node_modules/@zk-email/ether-email-auth-contracts/src/EmailAuth.sol:EmailAuth","label":"dkim","offset":0,"slot":"1","type":"t_contract(IDKIMRegistry)4054"},{"astId":4102,"contract":"node_modules/@zk-email/ether-email-auth-contracts/src/EmailAuth.sol:EmailAuth","label":"verifier","offset":0,"slot":"2","type":"t_contract(Verifier)6081"},{"astId":4105,"contract":"node_modules/@zk-email/ether-email-auth-contracts/src/EmailAuth.sol:EmailAuth","label":"controller","offset":0,"slot":"3","type":"t_address"},{"astId":4111,"contract":"node_modules/@zk-email/ether-email-auth-contracts/src/EmailAuth.sol:EmailAuth","label":"commandTemplates","offset":0,"slot":"4","type":"t_mapping(t_uint256,t_array(t_string_storage)dyn_storage)"},{"astId":4114,"contract":"node_modules/@zk-email/ether-email-auth-contracts/src/EmailAuth.sol:EmailAuth","label":"lastTimestamp","offset":0,"slot":"5","type":"t_uint256"},{"astId":4119,"contract":"node_modules/@zk-email/ether-email-auth-contracts/src/EmailAuth.sol:EmailAuth","label":"usedNullifiers","offset":0,"slot":"6","type":"t_mapping(t_bytes32,t_bool)"},{"astId":4122,"contract":"node_modules/@zk-email/ether-email-auth-contracts/src/EmailAuth.sol:EmailAuth","label":"timestampCheckEnabled","offset":0,"slot":"7","type":"t_bool"}],"types":{"t_address":{"encoding":"inplace","label":"address","numberOfBytes":"20"},"t_array(t_string_storage)dyn_storage":{"encoding":"dynamic_array","label":"string[]","numberOfBytes":"32","base":"t_string_storage"},"t_bool":{"encoding":"inplace","label":"bool","numberOfBytes":"1"},"t_bytes32":{"encoding":"inplace","label":"bytes32","numberOfBytes":"32"},"t_contract(IDKIMRegistry)4054":{"encoding":"inplace","label":"contract IDKIMRegistry","numberOfBytes":"20"},"t_contract(Verifier)6081":{"encoding":"inplace","label":"contract Verifier","numberOfBytes":"20"},"t_mapping(t_bytes32,t_bool)":{"encoding":"mapping","key":"t_bytes32","label":"mapping(bytes32 => bool)","numberOfBytes":"32","value":"t_bool"},"t_mapping(t_uint256,t_array(t_string_storage)dyn_storage)":{"encoding":"mapping","key":"t_uint256","label":"mapping(uint256 => string[])","numberOfBytes":"32","value":"t_array(t_string_storage)dyn_storage"},"t_string_storage":{"encoding":"bytes","label":"string","numberOfBytes":"32"},"t_uint256":{"encoding":"inplace","label":"uint256","numberOfBytes":"32"}}},"id":23}