{
    "abi": [
        {
            "type": "function",
            "name": "commandTemplates",
            "inputs": [],
            "outputs": [
                {
                    "name": "",
                    "type": "string[][]",
                    "internalType": "string[][]"
                }
            ],
            "stateMutability": "pure"
        },
        {
            "type": "function",
            "name": "computeEmailAuthAddress",
            "inputs": [
                {
                    "name": "owner",
                    "type": "address",
                    "internalType": "address"
                },
                {
                    "name": "accountSalt",
                    "type": "bytes32",
                    "internalType": "bytes32"
                }
            ],
            "outputs": [
                {
                    "name": "",
                    "type": "address",
                    "internalType": "address"
                }
            ],
            "stateMutability": "view"
        },
        {
            "type": "function",
            "name": "computeTemplateId",
            "inputs": [
                {
                    "name": "templateIdx",
                    "type": "uint256",
                    "internalType": "uint256"
                }
            ],
            "outputs": [
                {
                    "name": "",
                    "type": "uint256",
                    "internalType": "uint256"
                }
            ],
            "stateMutability": "pure"
        },
        {
            "type": "function",
            "name": "dkim",
            "inputs": [],
            "outputs": [
                {
                    "name": "",
                    "type": "address",
                    "internalType": "address"
                }
            ],
            "stateMutability": "view"
        },
        {
            "type": "function",
            "name": "dkimAddr",
            "inputs": [],
            "outputs": [
                {
                    "name": "",
                    "type": "address",
                    "internalType": "address"
                }
            ],
            "stateMutability": "view"
        },
        {
            "type": "function",
            "name": "emailAuthImplementation",
            "inputs": [],
            "outputs": [
                {
                    "name": "",
                    "type": "address",
                    "internalType": "address"
                }
            ],
            "stateMutability": "view"
        },
        {
            "type": "function",
            "name": "emailAuthImplementationAddr",
            "inputs": [],
            "outputs": [
                {
                    "name": "",
                    "type": "address",
                    "internalType": "address"
                }
            ],
            "stateMutability": "view"
        },
        {
            "type": "function",
            "name": "emitEmailCommand",
            "inputs": [
                {
                    "name": "emailAuthMsg",
                    "type": "tuple",
                    "internalType": "struct EmailAuthMsg",
                    "components": [
                        {
                            "name": "templateId",
                            "type": "uint256",
                            "internalType": "uint256"
                        },
                        {
                            "name": "commandParams",
                            "type": "bytes[]",
                            "internalType": "bytes[]"
                        },
                        {
                            "name": "skippedCommandPrefix",
                            "type": "uint256",
                            "internalType": "uint256"
                        },
                        {
                            "name": "proof",
                            "type": "tuple",
                            "internalType": "struct EmailProof",
                            "components": [
                                {
                                    "name": "domainName",
                                    "type": "string",
                                    "internalType": "string"
                                },
                                {
                                    "name": "publicKeyHash",
                                    "type": "bytes32",
                                    "internalType": "bytes32"
                                },
                                {
                                    "name": "timestamp",
                                    "type": "uint256",
                                    "internalType": "uint256"
                                },
                                {
                                    "name": "maskedCommand",
                                    "type": "string",
                                    "internalType": "string"
                                },
                                {
                                    "name": "emailNullifier",
                                    "type": "bytes32",
                                    "internalType": "bytes32"
                                },
                                {
                                    "name": "accountSalt",
                                    "type": "bytes32",
                                    "internalType": "bytes32"
                                },
                                {
                                    "name": "isCodeExist",
                                    "type": "bool",
                                    "internalType": "bool"
                                },
                                {
                                    "name": "proof",
                                    "type": "bytes",
                                    "internalType": "bytes"
                                }
                            ]
                        }
                    ]
                },
                {
                    "name": "owner",
                    "type": "address",
                    "internalType": "address"
                },
                {
                    "name": "templateIdx",
                    "type": "uint256",
                    "internalType": "uint256"
                }
            ],
            "outputs": [],
            "stateMutability": "nonpayable"
        },
        {
            "type": "function",
            "name": "verifier",
            "inputs": [],
            "outputs": [
                {
                    "name": "",
                    "type": "address",
                    "internalType": "address"
                }
            ],
            "stateMutability": "view"
        },
        {
            "type": "function",
            "name": "verifierAddr",
            "inputs": [],
            "outputs": [
                {
                    "name": "",
                    "type": "address",
                    "internalType": "address"
                }
            ],
            "stateMutability": "view"
        },
        {
            "type": "event",
            "name": "DecimalsCommand",
            "inputs": [
                {
                    "name": "emailAuthAddr",
                    "type": "address",
                    "indexed": true,
                    "internalType": "address"
                },
                {
                    "name": "command",
                    "type": "uint256",
                    "indexed": true,
                    "internalType": "uint256"
                }
            ],
            "anonymous": false
        },
        {
            "type": "event",
            "name": "EthAddrCommand",
            "inputs": [
                {
                    "name": "emailAuthAddr",
                    "type": "address",
                    "indexed": true,
                    "internalType": "address"
                },
                {
                    "name": "command",
                    "type": "address",
                    "indexed": true,
                    "internalType": "address"
                }
            ],
            "anonymous": false
        },
        {
            "type": "event",
            "name": "IntCommand",
            "inputs": [
                {
                    "name": "emailAuthAddr",
                    "type": "address",
                    "indexed": true,
                    "internalType": "address"
                },
                {
                    "name": "command",
                    "type": "int256",
                    "indexed": true,
                    "internalType": "int256"
                }
            ],
            "anonymous": false
        },
        {
            "type": "event",
            "name": "StringCommand",
            "inputs": [
                {
                    "name": "emailAuthAddr",
                    "type": "address",
                    "indexed": true,
                    "internalType": "address"
                },
                {
                    "name": "command",
                    "type": "string",
                    "indexed": true,
                    "internalType": "string"
                }
            ],
            "anonymous": false
        },
        {
            "type": "event",
            "name": "UintCommand",
            "inputs": [
                {
                    "name": "emailAuthAddr",
                    "type": "address",
                    "indexed": true,
                    "internalType": "address"
                },
                {
                    "name": "command",
                    "type": "uint256",
                    "indexed": true,
                    "internalType": "uint256"
                }
            ],
            "anonymous": false
        }
    ],
    "bytecode": {
        "object": "0x6080604052348015600f57600080fd5b506122508061001f6000396000f3fe608060405234801561001057600080fd5b50600436106100be5760003560e01c8063400ad5ce1161007657806373357f851161005b57806373357f85146101a6578063b6201692146101c6578063db4f06d6146101e457600080fd5b8063400ad5ce14610168578063663ea2e21461018657600080fd5b806320c700c0116100a757806320c700c0146101225780632b7ac3f3146101375780633a8eab141461015557600080fd5b80631098e02e146100c357806316a8b1a01461010d575b600080fd5b6002546100e39073ffffffffffffffffffffffffffffffffffffffff1681565b60405173ffffffffffffffffffffffffffffffffffffffff90911681526020015b60405180910390f35b610115610262565b604051610104919061161c565b610135610130366004611933565b6109c0565b005b60005473ffffffffffffffffffffffffffffffffffffffff166100e3565b6100e3610163366004611a95565b611069565b60015473ffffffffffffffffffffffffffffffffffffffff166100e3565b6000546100e39073ffffffffffffffffffffffffffffffffffffffff1681565b6001546100e39073ffffffffffffffffffffffffffffffffffffffff1681565b60025473ffffffffffffffffffffffffffffffffffffffff166100e3565b6102546101f2366004611ac1565b6040805160208101829052600760608201527f4558414d504c4500000000000000000000000000000000000000000000000000608082015290810182905260009060a00160408051601f19818403018152919052805160209091012092915050565b604051908152602001610104565b604080516002808252606082810190935260009190816020015b606081526020019060019003908161027c57505060408051600580825260c08201909252919250602082015b60608152602001906001900390816102a857905050816000815181106102d0576102d0611ada565b60200260200101819052506040518060400160405280600481526020017f456d6974000000000000000000000000000000000000000000000000000000008152508160008151811061032457610324611ada565b602002602001015160008151811061033e5761033e611ada565b60200260200101819052506040518060400160405280600681526020017f737472696e6700000000000000000000000000000000000000000000000000008152508160008151811061039257610392611ada565b60200260200101516001815181106103ac576103ac611ada565b60200260200101819052506040518060400160405280600881526020017f7b737472696e677d0000000000000000000000000000000000000000000000008152508160008151811061040057610400611ada565b602002602001015160028151811061041a5761041a611ada565b60200260200101819052506040518060400160405280600481526020017f456d6974000000000000000000000000000000000000000000000000000000008152508160018151811061046e5761046e611ada565b602002602001015160008151811061048857610488611ada565b60200260200101819052506040518060400160405280600481526020017f75696e7400000000000000000000000000000000000000000000000000000000815250816001815181106104dc576104dc611ada565b60200260200101516001815181106104f6576104f6611ada565b60200260200101819052506040518060400160405280600681526020017f7b75696e747d00000000000000000000000000000000000000000000000000008152508160018151811061054a5761054a611ada565b602002602001015160028151811061056457610564611ada565b60200260200101819052506040518060400160405280600481526020017f456d697400000000000000000000000000000000000000000000000000000000815250816002815181106105b8576105b8611ada565b60200260200101516000815181106105d2576105d2611ada565b60200260200101819052506040518060400160405280600381526020017f696e7400000000000000000000000000000000000000000000000000000000008152508160028151811061062657610626611ada565b602002602001015160018151811061064057610640611ada565b60200260200101819052506040518060400160405280600581526020017f7b696e747d0000000000000000000000000000000000000000000000000000008152508160028151811061069457610694611ada565b60200260200101516002815181106106ae576106ae611ada565b60200260200101819052506040518060400160405280600481526020017f456d6974000000000000000000000000000000000000000000000000000000008152508160038151811061070257610702611ada565b602002602001015160008151811061071c5761071c611ada565b60200260200101819052506040518060400160405280600881526020017f646563696d616c730000000000000000000000000000000000000000000000008152508160038151811061077057610770611ada565b602002602001015160018151811061078a5761078a611ada565b60200260200101819052506040518060400160405280600a81526020017f7b646563696d616c737d00000000000000000000000000000000000000000000815250816003815181106107de576107de611ada565b60200260200101516002815181106107f8576107f8611ada565b60200260200101819052506040518060400160405280600481526020017f456d6974000000000000000000000000000000000000000000000000000000008152508160048151811061084c5761084c611ada565b602002602001015160008151811061086657610866611ada565b60200260200101819052506040518060400160405280600881526020017f657468657265756d000000000000000000000000000000000000000000000000815250816004815181106108ba576108ba611ada565b60200260200101516001815181106108d4576108d4611ada565b60200260200101819052506040518060400160405280600881526020017f61646464726573730000000000000000000000000000000000000000000000008152508160048151811061092857610928611ada565b602002602001015160028151811061094257610942611ada565b60200260200101819052506040518060400160405280600981526020017f7b657468416464727d00000000000000000000000000000000000000000000008152508160048151811061099657610996611ada565b60200260200101516003815181106109b0576109b0611ada565b6020908102919091010152919050565b60006109d483856060015160a00151611069565b90506000610a3e836040805160208101829052600760608201527f4558414d504c4500000000000000000000000000000000000000000000000000608082015290810182905260009060a00160408051601f19818403018152919052805160209091012092915050565b85519091508114610ab0576040517f08c379a000000000000000000000000000000000000000000000000000000000815260206004820152601360248201527f696e76616c69642074656d706c6174652069640000000000000000000000000060448201526064015b60405180910390fd5b60008273ffffffffffffffffffffffffffffffffffffffff163b600003610ec857606086015160c001511515600114610b6b576040517f08c379a000000000000000000000000000000000000000000000000000000000815260206004820152602c60248201527f6973436f64654578697374206d757374206265207472756520666f722074686560448201527f20666972737420656d61696c00000000000000000000000000000000000000006064820152608401610aa7565b6000610b7f86886060015160a00151611187565b90508373ffffffffffffffffffffffffffffffffffffffff168173ffffffffffffffffffffffffffffffffffffffff1614610c3c576040517f08c379a000000000000000000000000000000000000000000000000000000000815260206004820152602f60248201527f70726f7879206164647265737320646f6573206e6f74206d617463682077697460448201527f6820656d61696c417574684164647200000000000000000000000000000000006064820152608401610aa7565b8091508173ffffffffffffffffffffffffffffffffffffffff1663557cf5ef610c7a60015473ffffffffffffffffffffffffffffffffffffffff1690565b6040517fffffffff0000000000000000000000000000000000000000000000000000000060e084901b16815273ffffffffffffffffffffffffffffffffffffffff9091166004820152602401600060405180830381600087803b158015610ce057600080fd5b505af1158015610cf4573d6000803e3d6000fd5b505050508173ffffffffffffffffffffffffffffffffffffffff16634141407c610d3360005473ffffffffffffffffffffffffffffffffffffffff1690565b6040517fffffffff0000000000000000000000000000000000000000000000000000000060e084901b16815273ffffffffffffffffffffffffffffffffffffffff9091166004820152602401600060405180830381600087803b158015610d9957600080fd5b505af1158015610dad573d6000803e3d6000fd5b505050506000610dbb610262565b905060005b8151811015610ec0578373ffffffffffffffffffffffffffffffffffffffff16638ff3730f610e4b836040805160208101829052600760608201527f4558414d504c4500000000000000000000000000000000000000000000000000608082015290810182905260009060a00160408051601f19818403018152919052805160209091012092915050565b848481518110610e5d57610e5d611ada565b60200260200101516040518363ffffffff1660e01b8152600401610e82929190611b09565b600060405180830381600087803b158015610e9c57600080fd5b505af1158015610eb0573d6000803e3d6000fd5b505060019092019150610dc09050565b505050610fce565b8290503073ffffffffffffffffffffffffffffffffffffffff168173ffffffffffffffffffffffffffffffffffffffff1663f77c47916040518163ffffffff1660e01b8152600401602060405180830381865afa158015610f2d573d6000803e3d6000fd5b505050506040513d601f19601f82011682018060405250810190610f519190611b93565b73ffffffffffffffffffffffffffffffffffffffff1614610fce576040517f08c379a000000000000000000000000000000000000000000000000000000000815260206004820152601260248201527f696e76616c696420636f6e74726f6c6c657200000000000000000000000000006044820152606401610aa7565b6040517fad3f5f9b00000000000000000000000000000000000000000000000000000000815273ffffffffffffffffffffffffffffffffffffffff82169063ad3f5f9b90611020908990600401611c3f565b600060405180830381600087803b15801561103a57600080fd5b505af115801561104e573d6000803e3d6000fd5b505050506110618387602001518661126f565b505050505050565b6000611180826040518060200161107f906115bf565b601f1982820381018352601f909101166040526110b160025473ffffffffffffffffffffffffffffffffffffffff1690565b60405173ffffffffffffffffffffffffffffffffffffffff881660248201526044810187905230606482015260840160408051601f19818403018152918152602080830180517bffffffffffffffffffffffffffffffffffffffffffffffffffffffff167fd26b3e6e00000000000000000000000000000000000000000000000000000000179052905161114793929101611cf4565b60408051601f19818403018152908290526111659291602001611d2b565b6040516020818303038152906040528051906020012061158d565b9392505050565b600080826111aa60025473ffffffffffffffffffffffffffffffffffffffff1690565b60405173ffffffffffffffffffffffffffffffffffffffff871660248201526044810186905230606482015260840160408051601f198184030181529181526020820180517bffffffffffffffffffffffffffffffffffffffffffffffffffffffff167fd26b3e6e000000000000000000000000000000000000000000000000000000001790525161123b906115bf565b611246929190611cf4565b8190604051809103906000f5905080158015611266573d6000803e3d6000fd5b50949350505050565b806000036113055760008260008151811061128c5761128c611ada565b60200260200101518060200190518101906112a79190611d5a565b9050806040516112b79190611dc8565b6040519081900381209073ffffffffffffffffffffffffffffffffffffffff8616907f645126e6978c1c365d84853d6b5fde98c36802fdbf41bba8d1a8ee915c9ea69290600090a350505050565b806001036113895760008260008151811061132257611322611ada565b602002602001015180602001905181019061133d9190611de4565b9050808473ffffffffffffffffffffffffffffffffffffffff167fa5c3e1e5fe35e2cf53bcd2d9788d8c914a2c0009059c57a4f81867ef891f953a60405160405180910390a350505050565b8060020361140d576000826000815181106113a6576113a6611ada565b60200260200101518060200190518101906113c19190611de4565b9050808473ffffffffffffffffffffffffffffffffffffffff167fc3ff6c3d86b9cdcc412d73eebae668f46939e7200f0a8b85a9d1b193cb78d9a660405160405180910390a350505050565b806003036114915760008260008151811061142a5761142a611ada565b60200260200101518060200190518101906114459190611de4565b9050808473ffffffffffffffffffffffffffffffffffffffff167fd3a48525d8c5ab22221baba6d473309d152050b2bbc71145e26a192ef216e8d160405160405180910390a350505050565b8060040361152b576000826000815181106114ae576114ae611ada565b60200260200101518060200190518101906114c99190611b93565b90508073ffffffffffffffffffffffffffffffffffffffff168473ffffffffffffffffffffffffffffffffffffffff167f1fa54e548d12ab4ab1876c405749e0ef462160262aaa4df2bfd4f4fe9fc7693b60405160405180910390a350505050565b6040517f08c379a000000000000000000000000000000000000000000000000000000000815260206004820152601360248201527f696e76616c69642074656d706c617465496478000000000000000000000000006044820152606401610aa7565b60006111808383306000604051836040820152846020820152828152600b8101905060ff815360559020949350505050565b61041d80611dfe83390190565b60005b838110156115e75781810151838201526020016115cf565b50506000910152565b600081518084526116088160208601602086016115cc565b601f01601f19169290920160200192915050565b6000602082016020835280845180835260408501915060408160051b86010192506020860160005b828110156116da578685037fffffffffffffffffffffffffffffffffffffffffffffffffffffffffffffffc0018452815180518087526020918201918088019190600582901b89010160005b828110156116c157601f198a83030184526116ac8286516115f0565b60209586019594909401939150600101611690565b5097505050602094850194929092019150600101611644565b50929695505050505050565b7f4e487b7100000000000000000000000000000000000000000000000000000000600052604160045260246000fd5b604051610100810167ffffffffffffffff81118282101715611739576117396116e6565b60405290565b6040516080810167ffffffffffffffff81118282101715611739576117396116e6565b604051601f8201601f1916810167ffffffffffffffff8111828210171561178b5761178b6116e6565b604052919050565b600067ffffffffffffffff8211156117ad576117ad6116e6565b50601f01601f191660200190565b600082601f8301126117cc57600080fd5b81356020830160006117e56117e084611793565b611762565b90508281528583830111156117f957600080fd5b82826020830137600092810160200192909252509392505050565b8035801515811461182457600080fd5b919050565b6000610100828403121561183c57600080fd5b611844611715565b9050813567ffffffffffffffff81111561185d57600080fd5b611869848285016117bb565b8252506020828101359082015260408083013590820152606082013567ffffffffffffffff81111561189a57600080fd5b6118a6848285016117bb565b6060830152506080828101359082015260a080830135908201526118cc60c08301611814565b60c082015260e082013567ffffffffffffffff8111156118eb57600080fd5b6118f7848285016117bb565b60e08301525092915050565b73ffffffffffffffffffffffffffffffffffffffff8116811461192557600080fd5b50565b803561182481611903565b60008060006060848603121561194857600080fd5b833567ffffffffffffffff81111561195f57600080fd5b84016080818703121561197157600080fd5b61197961173f565b81358152602082013567ffffffffffffffff81111561199757600080fd5b8201601f810188136119a857600080fd5b803567ffffffffffffffff8111156119c2576119c26116e6565b8060051b6119d260208201611762565b9182526020818401810192908101908b8411156119ee57600080fd5b6020850192505b83831015611a3557823567ffffffffffffffff811115611a1457600080fd5b611a238d6020838901016117bb565b835250602092830192909101906119f5565b60208601525050505060408281013590820152606082013567ffffffffffffffff811115611a6257600080fd5b611a6e88828501611829565b6060830152509350611a84905060208501611928565b929592945050506040919091013590565b60008060408385031215611aa857600080fd5b8235611ab381611903565b946020939093013593505050565b600060208284031215611ad357600080fd5b5035919050565b7f4e487b7100000000000000000000000000000000000000000000000000000000600052603260045260246000fd5b6000604082018483526040602084015280845180835260608501915060608160051b86010192506020860160005b82811015611b86577fffffffffffffffffffffffffffffffffffffffffffffffffffffffffffffffa0878603018452611b718583516115f0565b94506020938401939190910190600101611b37565b5092979650505050505050565b600060208284031215611ba557600080fd5b815161118081611903565b600081516101008452611bc76101008501826115f0565b9050602083015160208501526040830151604085015260608301518482036060860152611bf482826115f0565b9150506080830151608085015260a083015160a085015260c0830151611c1e60c086018215159052565b5060e083015184820360e0860152611c3682826115f0565b95945050505050565b60208152600060a082018351602084015260208401516080604085015281815180845260c08601915060c08160051b870101935060208301925060005b81811015611ccb577fffffffffffffffffffffffffffffffffffffffffffffffffffffffffffffff40878603018352611cb68585516115f0565b94506020938401939290920191600101611c7c565b50505050604084015160608401526060840151601f19848303016080850152611c368282611bb0565b73ffffffffffffffffffffffffffffffffffffffff83168152604060208201526000611d2360408301846115f0565b949350505050565b60008351611d3d8184602088016115cc565b835190830190611d518183602088016115cc565b01949350505050565b600060208284031215611d6c57600080fd5b815167ffffffffffffffff811115611d8357600080fd5b8201601f81018413611d9457600080fd5b8051611da26117e082611793565b818152856020838501011115611db757600080fd5b611c368260208301602086016115cc565b60008251611dda8184602087016115cc565b9190910192915050565b600060208284031215611df657600080fd5b505191905056fe608060405260405161041d38038061041d83398101604081905261002291610268565b61002c8282610033565b5050610358565b61003c82610092565b6040516001600160a01b038316907fbc7cd75a20ee27fd9adebab32041f755214dbc6bffa90cc0225b39da2e5c2d3b90600090a280511561008657610081828261010e565b505050565b61008e610185565b5050565b806001600160a01b03163b6000036100cd57604051634c9c8ce360e01b81526001600160a01b03821660048201526024015b60405180910390fd5b7f360894a13ba1a3210667c828492db98dca3e2076cc3735a920a3ca505d382bbc80546001600160a01b0319166001600160a01b0392909216919091179055565b6060600080846001600160a01b03168460405161012b919061033c565b600060405180830381855af49150503d8060008114610166576040519150601f19603f3d011682016040523d82523d6000602084013e61016b565b606091505b50909250905061017c8583836101a6565b95945050505050565b34156101a45760405163b398979f60e01b815260040160405180910390fd5b565b6060826101bb576101b682610205565b6101fe565b81511580156101d257506001600160a01b0384163b155b156101fb57604051639996b31560e01b81526001600160a01b03851660048201526024016100c4565b50805b9392505050565b8051156102155780518082602001fd5b604051630a12f52160e11b815260040160405180910390fd5b634e487b7160e01b600052604160045260246000fd5b60005b8381101561025f578181015183820152602001610247565b50506000910152565b6000806040838503121561027b57600080fd5b82516001600160a01b038116811461029257600080fd5b60208401519092506001600160401b038111156102ae57600080fd5b8301601f810185136102bf57600080fd5b80516001600160401b038111156102d8576102d861022e565b604051601f8201601f19908116603f011681016001600160401b03811182821017156103065761030661022e565b60405281815282820160200187101561031e57600080fd5b61032f826020830160208601610244565b8093505050509250929050565b6000825161034e818460208701610244565b9190910192915050565b60b7806103666000396000f3fe6080604052600a600c565b005b60186014601a565b605e565b565b600060597f360894a13ba1a3210667c828492db98dca3e2076cc3735a920a3ca505d382bbc5473ffffffffffffffffffffffffffffffffffffffff1690565b905090565b3660008037600080366000845af43d6000803e808015607c573d6000f35b3d6000fdfea2646970667358221220d774b63875ebbbb75f47054a127014ec1ba4efb9781fa1be4664237d223e393264736f6c634300081a0033a26469706673582212206d37fff02fd2da9ab0f7ae9da3e2b051bce49c51c66b2c0b1358f66b988e752464736f6c634300081a0033",
        "linkReferences": {}
    },
    "methodIdentifiers": {
        "commandTemplates()": "16a8b1a0",
        "computeEmailAuthAddress(address,bytes32)": "3a8eab14",
        "computeTemplateId(uint256)": "db4f06d6",
        "dkim()": "400ad5ce",
        "dkimAddr()": "73357f85",
        "emailAuthImplementation()": "b6201692",
        "emailAuthImplementationAddr()": "1098e02e",
        "emitEmailCommand((uint256,bytes[],uint256,(string,bytes32,uint256,string,bytes32,bytes32,bool,bytes)),address,uint256)": "20c700c0",
        "verifier()": "2b7ac3f3",
        "verifierAddr()": "663ea2e2"
    },
    "storageLayout": {
        "storage": [
            {
                "astId": 6090,
                "contract": "src/EmitEmailCommand.sol:EmitEmailCommand",
                "label": "verifierAddr",
                "offset": 0,
                "slot": "0",
                "type": "t_address"
            },
            {
                "astId": 6092,
                "contract": "src/EmitEmailCommand.sol:EmitEmailCommand",
                "label": "dkimAddr",
                "offset": 0,
                "slot": "1",
                "type": "t_address"
            },
            {
                "astId": 6094,
                "contract": "src/EmitEmailCommand.sol:EmitEmailCommand",
                "label": "emailAuthImplementationAddr",
                "offset": 0,
                "slot": "2",
                "type": "t_address"
            }
        ],
        "types": {
            "t_address": {
                "encoding": "inplace",
                "label": "address",
                "numberOfBytes": "20"
            }
        }
    },
    "id": 28
}